:020000040800F2
:10000000300C00209D0100089F1A000821120008F2
:100010009B1A0008B10800084F2F000800000000DC
:10002000000000000000000000000000651C000847
:10003000C50C000800000000191B0008B51E0008D0
:10004000B7010008B7010008B7010008B7010008B0
:10005000B7010008B7010008B7010008B7010008A0
:10006000B7010008B7010008B7010008B701000890
:10007000B7010008B70100080D090008B701000822
:10008000B701000845090008B7010008B7010008DA
:10009000B7010008B7010008B7010008B701000860
:1000A000B7010008B7010008B7010008B701000850
:1000B000B7010008B7010008B7010008B701000840
:1000C000B7010008B7010008B7010008B701000830
:1000D000B70100082526000891280008152B000804
:1000E000B7010008B7010008B7010008B701000810
:1000F000B7010008B7010008B7010008B701000800
:10010000B7010008B7010008B7010008B7010008EF
:10011000B7010008B7010008B7010008B1210008C5
:10012000B7010008B7010008B7010008B7010008CF
:10013000B7010008B7010008B7010008B7010008BF
:10014000B7010008B7010008B7010008B7010008AF
:10015000B7010008B7010008A9090008B7010008A5
:10016000B7010008B7010008B7010008B70100088F
:10017000B7010008B7010008B7010008B70100087F
:10018000B7010008B7010008DFF80CD000F0C4FA8E
:1001900000480047713A0008300C002006488047AC
:1001A00006480047FEE7FEE7FEE7FEE7FEE7FEE75C
:1001B000FEE7FEE7FEE7FEE7251F000889010008CD
:1001C0002DE9FE4F804681EA0300C00F0C460090E7
:1001D00021F0004123F00045B8EB0200A94105D20F
:1001E0004046214690461C460B46024623F00040FE
:1001F000104347D0270DC7F30A00C3F30A510290FA
:10020000401A019040286BDAC3F3130040F4801BBE
:100210000098924620B10023D2EB030A63EB0B0B4C
:1002200001985946C0F14002504600F0B0F9064628
:100230000D4650465946019A00F0C8F910EB0800E7
:100240006141002487EA115284EAE7731A4340D0DF
:10025000009A62B3019A012A4FEA075215DC001B8B
:1002600061EB02014FF0004202EA0752CDE9004281
:10027000001C41F5801132462B4600F0FFF903B017
:10028000BDE8F08F40462146F9E7001B61EB020113
:10029000001C41F5801300185B412018A2F50017DF
:1002A00047EB030140EAD570B6196D4111E06D08C6
:1002B0004FEA360645EAC0754FEA0752001B61EB6C
:1002C0000201001C41F5801149084FEA3000001975
:1002D000514132462B4603B0BDE8F04F00F0BFB9A4
:1002E0000098012240000023D0EB020263EBE07390
:1002F000009821464FEAE074B8EB000061EB04017E
:10030000E9E783F000435BE781F0004158E72DE91E
:10031000FE4F81EA030404F0004421F00041009400
:100320004FF0000B23F0004350EA01045ED052EA84
:1003300003045BD0C3F30A54C1F30A552C44A4F25E
:10034000F3340194A0FB0254C1F3130141F4801172
:10035000C3F3130343F4801301FB024400FB034E79
:10036000840A970A44EA815447EA8357A4FB076842
:1003700002958D0A05FB07854FEA932C04FB0C546C
:100380002705029D4FEA065847EA1637B5EB0805E0
:100390006EEB070C870E920E47EA811742EA831232
:1003A000A7FB0201B6EB0B0164EB00042B0D43EA43
:1003B0000C335E1844EB1C50DA465146E7FB020151
:1003C000C5F313044FEA0B3343EA14534FEA0432E4
:1003D000019C43EA0603A4F10C040294009CCDE9BD
:1003E00000B400F04BF903B0BDE8F08F00200146E7
:1003F000F9E72DE9F04D81EA030404F0004B21F008
:10040000004514464FF0000A23F0004150EA05026F
:1004100020D054EA01021DD0C5F30A570246C5F3A5
:100420001303C1F31300C1F30A5640F4801543F4DB
:100430008013A7EB0608101BD64608F2FD3873EBB5
:10044000050002D308F1010801E092185B41B8F100
:10045000000F03DA00200146BDE8F08D00204FF4C4
:100460008011064684460EE0171B73EB050705D383
:10047000121B63EB050306434CEA010C49084FEAE3
:10048000300092185B4150EA0107EDD152EA0300B7
:1004900012D082EA040083EA0501084305D0101B4C
:1004A000AB4106D20122002306E000224FF00043B8
:1004B00002E06FF0010253101AEB06004CEB0851FA
:1004C00010EB0A0041EB0B01BDE8F04D00F0C7B89E
:1004D0000EB5C10F80EAE0700844CA07002140F25F
:1004E00033438DE80E000A460B4600F0C7F803B010
:1004F00000BD70B5C1F30A5201F000450024C1F3FC
:10050000130140F2FF3341F480119A4201DA0020D6
:1005100070BD40F233439A42A2F2334203DC5242AE
:1005200000F044F800E090402C43F1D0404270BD10
:1005300000F0004230F000400AD0C10D01F56071BA
:10054000C0F3160042EA0151C20840071143704748
:1005500000200146704701F0004330B421F0004113
:1005600050EA010206D00A0DA2F56072C1F3130130
:10057000002A02DC30BC00207047440F44EAC1046A
:10058000C100E01830BC00EBC25000F031B8202AA6
:1005900004DB203A00FA02F1002070479140C2F1DA
:1005A000200320FA03F3194390407047202A04DB0C
:1005B000203A21FA02F00021704721FA02F3D040DC
:1005C000C2F120029140084319467047202A06DBF9
:1005D000CB17203A41FA02F043EAE07306E041FA11
:1005E00002F3D040C2F120029140084319467047FF
:1005F0000029A8BF7047401C490008BF20F0010037
:10060000704710B4B0FA80FC00FA0CF050EA010414
:1006100004BF10BC704749B1CCF1200421FA04F4A6
:1006200011FA0CF118BF012121430843A3EB0C017F
:10063000CB1D4FEA00614FEA102042BF002010BCE2
:10064000704700EBC35010440029A4BF10BC704792
:10065000401C490008BF20F0010010BC704710B5D5
:10066000141E73F1000408DA401C41F100019218D5
:100670005B411A4301D120F0010010BD2DE9F04D7E
:1006800092469B4611B1B1FA81F202E0B0FA80F2D3
:1006900020329046FFF77BFF04460F4640EA0A00EF
:1006A00041EA0B0153465A46084313D0114653EA18
:1006B000010019D0C8F140025046FFF777FF054608
:1006C0000E46504659464246FFF761FF084305D0A3
:1006D000012004E020463946BDE8F08D00200543A6
:1006E00046EAE0762C4337430A986305E40AA0EB18
:1006F00008000022FD0A44EA47540A3002D50020CF
:100700000146E9E7010510196941DDE908450019CD
:100710006941BDE8F04DA2E7064C074D06E0E068F0
:1007200040F0010394E8070098471034AC42F6D338
:10073000FFF72EFD08420008284200082DE9F04D81
:1007400000231A461B1A8A4103DB00200146BDE83C
:10075000F08DC1F30A52C1F3130141F480154FF03B
:10076000000BD10702D100186D41521E002704462C
:1007700040F2FF11384601EB620A3E4680460246CF
:1007800000204FF48011FFF711FFC2197141BB180F
:1007900046EB0100B4EB030C75EB000C04D3E41A38
:1007A00065EB000517460E46241908F101006D415E
:1007B00080463428E3DDF91946EB0600091BA84101
:1007C00003D24FF0FF32134601E0002213461BEB29
:1007D000070046EB0A51BDE8F04DFFF740BF0000AF
:1007E000B0F90020B1F90030D21A00EE102AF8EE6C
:1007F000C00A00EE103AB8EEC00A1E4A92ED001A86
:1008000001EE200ABDEEC00A10EE102A12B20A80D4
:10081000B0F90220B1F90230D21A00EE102AF8EE37
:10082000C00A00EE103AB8EEC00A124A92ED001A61
:1008300001EE200ABDEEC00A10EE102A12B24A8064
:10084000B0F90420B1F90430D21A00EE102AF8EE03
:10085000C00A00EE103AB8EEC00A064A92ED001A3D
:1008600001EE200ABDEEC00A10EE102A12B28A80F4
:1008700070470000740000201CB50121022001F027
:100880004DF90220009001208DF8040000208DF821
:1008900006008DF807008DF805006946034800F052
:1008A0001DFA022001491A3108801CBD00040240D3
:1008B00000BFFEE710B50849084800F091F8002194
:1008C000064800F0A7F80F2004492839C862012122
:1008D000024800F09FF810BD408F001028600240D1
:1008E00010B50849084800F07BF80021064800F0E0
:1008F00091F817200449091D08600121024800F001
:1009000089F810BD408F00208860024010B50A4968
:100910000A4800F059F968B10749084800F060F842
:100920000021064800F076F8012240F226610448D2
:1009300002F078FA10BD00000080001858600240F4
:100940000048004010B50A490A4800F03DF968B176
:100950000749084800F044F80021064800F05AF81A
:10096000012240F22661044802F05CFA10BD00004A
:1009700000802020A06002400044004010B50849DB
:10098000084800F02DF80021064800F043F80F2039
:100990000449091D08600121024800F03BF810BD20
:1009A000408F00208864024010B50A490A4800F0D0
:1009B0000BF968B10749084800F012F80021064811
:1009C00000F028F8012240F22661044802F02AFAD9
:1009D00010BD000000800028B864024000100140F3
:1009E0000246094B9A4201D2084801E006481038F5
:1009F00001F000531BB1064B0B40C36002E0044BF7
:100A00000B408360704700001064024000600240A9
:100A10007D0F7D0F21B1026842F00102026003E008
:100A2000026822F00102026070470000016821F0B4
:100A3000010101600021016041608160C1600161CC
:100A4000212141614A49884204D13D21484A103A56
:100A500091608CE046491831884205D14FF47461A9
:100A6000434A103A916082E041493031884205D1D1
:100A70004FF474113E4A103A916078E03C49483195
:100A8000884205D14FF07461394A103A91606EE0A6
:100A900037496031884204D13649354A103AD1602D
:100AA00065E033497831884204D13349304A103AFD
:100AB000D1605CE02E499031884204D12F492C4A04
:100AC000103AD16053E02A49A831884205D14FF04D
:100AD0003D51274A103AD16049E02949884204D162
:100AE0003D21274A083A116041E0254918318842E2
:100AF00005D14FF47461224A083A116037E0204969
:100B00003031884205D14FF474111D4A083A116002
:100B10002DE01B494831884205D14FF07461184AD5
:100B2000083A116023E016496031884204D1114926
:100B3000134A121F11601AE011497831884204D11A
:100B40000D490F4A121F116011E00D499031884282
:100B500004D10A490A4A121F116008E00849A83165
:100B6000884204D14FF03D51054A121F1160704771
:100B7000106002403D000020400F002000003D209A
:100B80001064024030B503460A46002000240B4D95
:100B9000AB4201D20A4901E00849103902F0005580
:100BA0000DB14C6800E00C68064D2C4004EA0205CB
:100BB0000DB1012000E0002030BD000010640240B3
:100BC000006002407D0F7D0F70B5024600200024BA
:100BD0000025124EB24201D2114B01E00F4B103BE7
:100BE000104E0E4036B11E2606EAD124166806EADB
:100BF000040502E0566906F0800501F000560EB1CA
:100C00005C6800E01C68084E344004EA010616B136
:100C10000DB1012000E0002070BD00001064024012
:100C2000006002403C0F3C0F7D0F7D0F10B501F0BE
:100C300080034BB122B1436943F08003436103E079
:100C4000436923F08003436180290BD02AB10368F4
:100C500001F01E042343036004E0036801F01E0456
:100C6000A343036010BD000010B500220268134BBF
:100C70001A40CC680B6823434C6923438C69234397
:100C8000CC6923430C6A23434C6A23438C6A234375
:100C90004C6B23438C6B23431A430260426922F05E
:100CA0000702D1E90B3423431A4342610B694360C5
:100CB0004B6883608B68C36010BD00003F801CF0F0
:100CC000416070477047002105E0002200E0521C9F
:100CD000052AFCD3491C8142F7D37047F0B50A4678
:100CE00000210023002400BF3DE0012505FA01F3A7
:100CF000156805EA03049C4234D105684F000326B9
:100D0000BE40B543056015794E00B54006683543D1
:100D100005601579012D02D01579022D16D185684F
:100D20004F000326BE40B543856055794E00B5405F
:100D3000866835438560456801268E40B543456029
:100D4000456896798E40B6B235434560C5684F0018
:100D50000326BE40B543C560D5794E00B540C66890
:100D60003543C560491C1029BFD3F0BDF0B5002341
:100D700000244D07ED0E02FA05F3CE1000F1200518
:100D800055F826504E07F70E0F26BE40B543CF103C
:100D900000F1200646F82750CE1000F1200555F846
:100DA000265045EA0304CE1000F1200545F8264000
:100DB000F0BD000010B5234A911E881E00F01AFDF8
:100DC000214A911E881E00F03DFD20491D48001F4C
:100DD000FFF706FD1E491C48001F00F02FF91D49B2
:100DE0001B4800F003F91948B0F9040003EE100A9B
:100DF000B8EEC33AF0EE432A1448B0F9020003EE0D
:100E0000100AB8EEC33AB0EE432A1048B0F9000019
:100E100003EE100AB8EEC33AF0EE431A0D4890ED17
:100E2000023AB0EE431A90ED013AF0EE430A90ED2B
:100E3000003AB0EE430A00F053FB074800F00EF80A
:100E400010BD0000900000209600002098000020B7
:100E50009E000020200700202C07002010B52DED5B
:100E60000A8B0446584890ED000A20EE000A5748C5
:100E7000D0ED000A90ED001A00EEC10A5448D0ED02
:100E8000000A90ED001A00EEC10A5248D0ED000AA7
:100E900090ED001A00EE810A10EE101A0846FFF7D6
:100EA00047FB41EC1B0B484890ED000A4748D0ED4A
:100EB000000A20EE200A4648D0ED000A454890ED91
:100EC000001A00EE810AF0EE000A20EE200A10EE71
:100ED000101A0846FFF72CFB41EC1C0BB0EE4B1A26
:100EE000F0EE6B1AB0EE4C0AF0EE6C0A02F068FB02
:100EF000B0EE40AAF0EE60AA51EC1A0B81F000416E
:100F000041EC190B9FED340B53EC102BFFF7FFF95D
:100F100041EC180BFFF71FFB20602B4890ED000AF7
:100F20002B48D0ED000A20EE200A2848D0ED000A18
:100F3000284890ED001A00EEC10AF0EE000A20EEFB
:100F4000200A10EE101A0846FFF7F2FA41EC1A0BCD
:100F5000B0EE4A0AF0EE6A0A02F016F8B0EE409AD5
:100F6000F0EE609A9FED1C0B53EC102B51EC190B1B
:100F7000FFF7CDF941EC180BFFF7EDFA6060184868
:100F8000B0F90400142808DA1548B0F9040010F18B
:100F9000140F02DD00201249888094ED020A1048E7
:100FA000B0F9040000EE900AF8EEE00A9FED0D1A89
:100FB00060EE810A9FED0C1A00EE810A84ED020AB0
:100FC000BDEC0A8B10BD0000BC000020C00000205A
:100FD000C4000020C800002000000020DCA54C4018
:100FE0009E0000200000FA3C6F12033BB0F9002085
:100FF00000EE102AB8EEC00ADFED0F0A20EE200A3C
:1010000081ED000AB0F9022000EE102AB8EEC00A05
:10101000DFED090A20EE200A81ED010AB0F9042073
:1010200000EE102AB8EEC00ADFED030A20EE200A17
:1010300081ED020A7047000089A18B3A70B52DED51
:101040000A8B06460C469FED680BB0EE408AF0EE28
:10105000608A9FED650BB0EE409AF0EE609A9FEDCE
:10106000620BB0EE40AAF0EE60AA0025B6F90000CF
:1010700000EE100AB8EEC00A5D485E49097800EB40
:10108000810080ED000AB6F9020000EE100AB8EE09
:10109000C00A59485749097800EB810080ED000AE1
:1010A000B6F9040000EE100AB8EEC00A53485149E0
:1010B000097800EB810080ED000A00BF37E04C4862
:1010C00000EB850090ED000A10EE101A0846FFF7BD
:1010D0002FFA41EC1B0B53EC182BFFF771F841EC86
:1010E000180B454800EB850090ED000A10EE101A31
:1010F0000846FFF71DFA41EC1B0B53EC192BFFF7C9
:101100005FF841EC190B3D4800EB850090ED000ABB
:1011100010EE101A0846FFF70BFA41EC1B0B53ECCC
:101120001A2BFFF74DF841EC1A0B681CC5B2082DBD
:10113000C5DB9FED330B53EC102B51EC180BFFF775
:1011400058F941EC1C0B9FED300B53EC102BFFF7C3
:1011500037F841EC1B0BFFF7CCF900B220809FED74
:10116000280B53EC102B51EC190BFFF742F941EC13
:101170001C0B9FED270B53EC102BFFF7C2F841EC33
:101180001B0BFFF7B6F900B260809FED1D0B53EC0F
:10119000102B51EC1A0BFFF72CF941EC1C0B9FEDB7
:1011A0001E0B53EC102BFFF7ACF841EC1B0BFFF7B9
:1011B000A0F900B2A080B4F904000A2806DAB4F954
:1011C000040010F10A0F01DD0020A080094800781A
:1011D000401C0849087008460078082801D1002002
:1011E0000870BDEC0A8B70BD00000000000000001C
:1011F0001002002084000020300200205002002055
:1012000000000000000020400000000000107340BB
:1012100000000000008053400000000000002C404F
:1012200000BFFEE700B500200F4908600F480068C6
:1012300020F440400D4908600846006840F48040B2
:10124000086000200A49C1F89C020A20FFF73BFD14
:101250000120054908600A20FFF735FD00200449F8
:10126000C1F8980200BD000098824042000402408C
:10127000008040421CB50121022000F04FFCC0203C
:10128000009002208DF8050001208DF80400002058
:101290008DF8060001208DF8070069460448FFF725
:1012A0001DFD0120034908600349C1F89C021CBDD3
:1012B00000040240988240420080404200B5002075
:1012C0000F4908600F48006820F440400D4908604D
:1012D0000846006840F48040086001200A49C1F8CF
:1012E0009C020A20FFF7EFFC0120054908600A2054
:1012F000FFF7E9FC00200449C1F8980200BD000096
:1013000098824042000402400080404270B5054689
:1013100000241648006820F440401449086008463C
:1013200000680860002616E00020114908600A20C5
:10133000FFF7C9FC01200F49C1F898026006040EAE
:101340000B487C38006808B1601CC4B20A20FFF763
:10135000BAFC701CC6B2082EE6DB15B1FFF762FFBF
:1013600001E0FFF7ABFF204670BD00000004024023
:10137000988240420080404230B5044615480068DB
:1013800020F44040134908600846006840F480405B
:101390000860002010490860002517E0E0090E49A8
:1013A000091D08606006040E0A20FFF78CFC01206E
:1013B0000A49C1F898020A20FFF785FC0020064977
:1013C00008600A20FFF77FFC681CC5B2082DE5DB2A
:1013D00030BD00000004024098824042008040423C
:1013E00000B50F48006820F440400D4908600846E9
:1013F000006840F48040086001200A4908600A49FA
:10140000C1F898020A20FFF75EFC00200549086039
:101410000A20FFF758FC00200349C1F8980200BDDC
:10142000000402409C8240420080404200B50F48C8
:10143000006820F440400D4908600846006840F408
:101440008040086000200A4908600A49C1F89C02EF
:101450000A20FFF738FC0120054908600549C1F85A
:101460009C020A20FFF72FFC00BD00000004024090
:10147000988240420080404210B500241548006820
:1014800020F44040134908600846006808600120C5
:10149000114908600A20FFF716FC01200F49C1F826
:1014A00098020A20FFF70FFC0AE0601CC4B2322C3D
:1014B00003DDFFF7BBFF012010BD0A20FFF703FC8F
:1014C0000548803800680028EFD10349091F0860EB
:1014D00000BFF1E7000402409C824042008040428D
:1014E00000B52DED108B81B0F0EE408AB0EE609A21
:1014F000F0EE419AB0EE61BAB0EE42AAF0EE62AA06
:10150000A44890ED000AF0EE40BAA34890ED000A1E
:10151000B0EE40CAA14890ED000AF0EE40CAA048E3
:1015200090ED000AB0EE40DA6BEE0B0A4AEE0A0AC2
:101530004AEEAA0AB0EE600A02F07CFAB0EE408AE7
:101540002BEE080AB0EE40BA2AEE080AB0EE40AA26
:101550002AEE880AF0EE40AA8F4890ED000A9048E3
:10156000D0ED000A20EE200A8A48D0ED000A8B4810
:1015700090ED001A00EEC10AF0EE000A20EE200AFB
:10158000F0EE40DA834890ED000A8348D0ED000A7F
:1015900020EE200A8148D0ED000A814890ED001A23
:1015A00000EE810AF0EE000A20EE200AB0EE40EADA
:1015B000784890ED000A20EE000A7748D0ED000A46
:1015C00090ED001A00EEC10A7448D0ED000A90EDCB
:1015D000001A00EEC10A7248D0ED000A90ED001A20
:1015E00000EE810AF0EE40EA2AEE2E0A0AEECE0A5A
:1015F000B0EE40FA2AEEAD0A0BEE6E0AF0EE40FABB
:101600002BEE0E0A0AEE6D0A8DED000A654890ED8C
:10161000000ADFED650A0FEE200A80ED000A63483C
:1016200090ED000ADFED600A0FEEA00A80ED000ADF
:101630005F48D0ED000A9DED000A9FED5B1A40EE79
:10164000010AC0ED000AF0EE000AB0EE680A00EEF2
:101650008F0A5448D0ED000A30EE200AF0EE408A9E
:10166000F0EE000AB0EE490A00EEAF0A4F48D0EDA6
:10167000000A30EE200AB0EE409A9DED000AB0EE6E
:10168000001AF0EE690A41EE000A494890ED000A9E
:1016900030EE800AF0EE409AB1EE4C0A20EE280AB5
:1016A0000CEEC90A0DEE690A9FED3F1AF0EE6B0AC7
:1016B00040EE010A3748C0ED000A2BEEA80A0CEEF6
:1016C000A90A0DEE490A9FED381AF0EE4C0A40EED9
:1016D000010A3148C0ED000A2BEE890A0CEE690AB6
:1016E0000DEE280A9FED301AF0EE6C0A40EE010A6A
:1016F0002A48C0ED000A2BEEA90A0CEE090A0CEEEE
:10170000E80A9FED291AF0EE4D0A40EE010A24483E
:10171000C0ED000A1F48D0ED000A60EEA00A1E4886
:1017200090ED001AD0ED001A41EE210A1B4890ED11
:10173000001AD0ED001A41EE210A194890ED001A66
:10174000D0ED001A41EE210AB0EE600A02F072F903
:10175000B0EE408A0F4890ED000A20EE080A80EDB6
:10176000000A0D4890ED000A20EE080A80ED000AFC
:101770000A4890ED000A20EE080A80ED000A0848A9
:1017800090ED000A20EE080A80ED000A01B0BDECE1
:10179000108B00BDBC000020C0000020C400002051
:1017A000C8000020CC0000206F12833AD000002037
:1017B000D40000201CB50121022000F0AFF94FF445
:1017C0000040009001208DF8040000208DF80600F4
:1017D0008DF8070002208DF8050069460448FFF7E0
:1017E0007DFA4FF400400249183108801CBD00000A
:1017F000000402402DE9FC4104460D4616466B46A6
:1018000006223B21682000F0A2F80746BFB99DF8E8
:1018100001009DF8001040EA012000B220809DF8F0
:1018200003009DF8021040EA012000B228809DF8D4
:1018300005009DF8041040EA012000B230803846CF
:10184000BDE8FC812DE9FC4104460D4616466B4679
:1018500006224321682000F07AF80746BFB99DF8B8
:1018600001009DF8001040EA012000B220809DF8A0
:1018700003009DF8021040EA012000B228809DF884
:1018800005009DF8041040EA012000B2308038467F
:10189000BDE8FC8110B5FFF7EDFC80216B2000F066
:1018A000DAF842F2107002F0ADF800216B2000F07F
:1018B000D2F8022000F08DF8022000F082F84FF4F8
:1018C000FA7000F0ABF80021382000F0C4F80021D5
:1018D0006A2000F0C0F80021232000F0BCF880212D
:1018E000372000F0B8F8752000F014F80446682C92
:1018F0000CD101216B2000F0AEF800216C2000F02B
:10190000AAF84FF4FA7000F089F801E0012010BD48
:101910000020FCE770B50446FFF762FDD020FFF71A
:101920002BFDFFF7A9FD2046FFF726FDFFF7A4FDDD
:10193000FFF756FDD120FFF71FFDFFF79DFD0020AB
:10194000FFF7E4FC0546FFF771FD284670BD2DE961
:10195000F04106460F4614461D46FFF741FD0021A3
:1019600041EA4601C8B2FFF707FDFFF785FD20B148
:10197000FFF75CFD0120BDE8F0813846FFF7FCFC75
:10198000FFF77AFDFFF72CFD012101EB4601C8B2FC
:10199000FFF7F2FCFFF770FD0DE0012C04D10020F1
:1019A000FFF7B4FC287003E00120FFF7AFFC2870BC
:1019B000601EC4B26D1C002CEFD1FFF737FD002074
:1019C000D9E710B50446E006010E1C2000F043F8EC
:1019D00010BD10B50446E006010E1B2000F03BF8D8
:1019E00010BD70B504460025BC2C01DB012510E0BC
:1019F000622C01DB02250CE02A2C01DB032508E028
:101A0000142C01DB042504E00A2C01DB052500E091
:101A1000062529461A2000F01EF870BD70B5044650
:101A2000B4F57A7F01DD4FF47A74042C00DA0424D3
:101A30004FF47A7090FBF4F0401EC5B2294619208D
:101A400000F009F80546264604EBD671C1F34F00B5
:101A5000FFF7C7FF70BD70B505460C46FFF7C0FC29
:101A6000D020FFF789FCFFF707FD18B1FFF7DEFC78
:101A7000012070BD2846FFF77FFCFFF7FDFC2046E4
:101A8000FFF77AFCFFF7F8FC18B1FFF7CFFC012055
:101A9000EFE7FFF7CBFC0020EBE700BFFEE7704766
:101AA00070B5002100230F22C4781CB3174C2468A2
:101AB00004F4E064C4F5E064C4F30721C1F1040454
:101AC000E3B20A4144789C40E1B284781440214357
:101AD0000C07210E0E4C05786155047804F01F05A3
:101AE0000124AC4005786D11AD0005F1E025C5F885
:101AF000004109E0047804F01F050124AC40054DC5
:101B00000678761145F8264070BD00000CED00E027
:101B100000E400E080E100E07047000029B1064ADF
:101B200012680243044B1A6004E0034A12688243BD
:101B3000014B1A60704700003038024029B1064A54
:101B400012680243044B1A6004E0034A126882439D
:101B5000014B1A60704700004038024029B1064A24
:101B600012680243044B1A6004E0034A126882437D
:101B7000014B1A607047000044380240F0B5002164
:101B800000220024022500260223324F3F6807F07E
:101B90000C0121B1042905D0082937D105E02E4FC9
:101BA000076036E02D4F076033E02A4F3F1F3F6844
:101BB000C7F38056274F3F1F3F6807F03F036EB1C2
:101BC000264FB7FBF3F7DFF88CC0ACF1040CDCF860
:101BD00000C0CCF3881C07FB0CF40CE01E4FB7FBD5
:101BE000F3F7DFF870C0ACF1040CDCF800C0CCF304
:101BF000881C07FB0CF4174F3F1F3F68C7F30147D2
:101C00007F1C7D00B4FBF5F7076002E0124F076010
:101C100000BF00BF0F4F3F6807F0F0010909104FE8
:101C20007A5C0768D74047600A4F3F6807F4E05185
:101C3000890A0B4F7A5C4768D7408760054F3F6839
:101C400007F46041490B064F7A5C4768D740C7608C
:101C5000F0BD0000083802400024F40000127A00B1
:101C600014000020704700000CB500200190009087
:101C70003448006840F480303249086000BF314881
:101C8000006800F4003000900198401C019000981A
:101C900018B90198B0F5A04FF1D12A48006800F4B6
:101CA000003010B10120009001E000200090009869
:101CB000012846D123484030006840F08050214937
:101CC000403108602048006840F440401E490860E8
:101CD0001C48083000681B49083108600846006845
:101CE00040F4004008600846006840F4A0500860D6
:101CF0001648091F0860081F006840F08070091F1F
:101D0000086000BF0F48006800F000700028F9D09C
:101D100040F205700E4908600A480830006820F05B
:101D200003000849083108600846006840F00200D6
:101D3000086000BF03480830006800F00C00082865
:101D4000F8D10CBD00380240007000400854400734
:101D5000003C024010B50849002000F00FF8064989
:101D6000002000F00BF80449002000F007F80249B9
:101D7000002000F003F810BDD800002070B5054623
:101D80000C46206800EBC00000F5C86044490860BC
:101D9000606800EBC00000F5C86042490860A068B8
:101DA00000EBC00000F5C8603F490860E06800EB48
:101DB000C00000F5C8603D49086035B1012D1ED056
:101DC000022D36D0032D68D14DE035480068B0F5BE
:101DD0002F7F02DA4FF42F7009E03148006840F697
:101DE000C411884201DD084601E02D4800682C49F5
:101DF0000860084601682E4800F0B3FB4EE0294811
:101E00000068B0F52F7F02DA4FF42F7009E0254803
:101E1000006840F6C411884201DD084601E021480F
:101E200000682049086008460168214800F09BFBD3
:101E300034E01D480068B0F52F7F02DA4FF42F70B0
:101E400009E01948006840F6C411884201DD0846DF
:101E500001E0154800681449086008460168144804
:101E600000F083FB1AE011480068B0F52F7F02DA1A
:101E70004FF42F7009E00D48006840F6C411884205
:101E800001DD084601E00948006808490860084685
:101E90000168074800F06BFB00E000BF00BF70BDA9
:101EA000E8000020EC000020F0000020F4000020FA
:101EB0000004004010B500F0A9FB10BD30B5154876
:101EC0000068154AB0FBF2F1481EB0F1807F01D3E3
:101ED00001201BE0481E4FF0E022506150170F22F6
:101EE000002807DA13071D0E0C4B00F00F04241F07
:101EF0001D5503E013071C0E094B1C5400BF0020A6
:101F00004FF0E022906107201061002008B100BF6F
:101F1000FEE730BD00000020A086010018ED00E0C3
:101F200000E400E010B51548006840F47000134963
:101F300008601348006840F0010011490860002063
:101F40000F49083108600E4800680E4908400C49E6
:101F500008600D48091D0860081F006820F48020F3
:101F6000091F0860002006490C310860FFF77CFE5D
:101F70004FF0006001498039086010BD88ED00E035
:101F800000380240FFFFF6FE1030002400B599B083
:101F900001210846FFF7C2FD01210846FFF7DEFDDB
:101FA00001218805FFF7BAFD4FF400601790022069
:101FB0008DF8600000208DF862008DF8630003202A
:101FC0008DF8610017A93748FEF788FE01220B2122
:101FD0003448FEF7CBFE272015900620ADF85000C0
:101FE0000020ADF85800ADF852008DF85A0014A941
:101FF0002D4800F0BFFA6020ADF83C000120ADF89C
:102000003E0000201190ADF848000FA9264800F0CE
:102010005FFA0821244800F097FA012211032248B0
:1020200000F030F90821204800F08EFA01211E4806
:1020300000F0FEF801211C4800F015F901211A48B2
:1020400000F005F91948FEF7F1FC4FF040600090F0
:10205000154840300190164802904020039012200D
:102060000490002005904FF4806006904000079097
:1020700080000890002009904FF400300A90002062
:102080000B9003200C9000200D900E90694607489D
:10209000FEF7EAFD012210210448FEF7C7FD19B042
:1020A00000BD0000000002400000014070640240DA
:1020B0000001002030B58BB005460C4601210220FE
:1020C000FFF73CFD01210420FFF728FD0222062135
:1020D0003548FEF74BFE022207213348FEF746FE45
:1020E000022208213048FEF741FE022209212E4833
:1020F000FEF73CFE4FF47070099002208DF8280026
:1021000000208DF82A0002208DF82B008DF8290080
:1021100009A92548FEF7E2FD09A92348FEF7DEFDDF
:102120000795ADF818400020ADF82000ADF81A0072
:1021300006A91E4800F01EFA6020ADF80400012038
:10214000ADF806000020ADF81000039001A9174873
:1021500000F0BCF801A9154800F000F901A91348E6
:1021600000F05CF901A9114800F0B2F908210F480C
:1021700000F0EAF808210D4800F042F908210B4868
:1021800000F09CF90821094800F0DEF90121074818
:1021900000F04EF80121054800F065F801210348E0
:1021A00000F055F80BB030BD0008024000040040BC
:1021B00010B50121054800F06EF808B101F0DEFB12
:1021C0000121024800F040F810BD0000001400405A
:1021D0007FB505460C4601212020FFF7AFFC029594
:1021E000A0B2ADF804000020ADF80600ADF80C0078
:1021F00001A90E4800F0BEF9012211460B4800F07B
:102200005BF80121094800F022F837208DF8000022
:1022100001208DF8010003208DF8020001208DF8C7
:1022200003006846FFF73CFC7FBD0000001400403F
:1022300021B1028842F08002028004E002884FF659
:102240007F731A4002807047CA430282704721B1EF
:10225000028842F00102028004E002884FF6FE7319
:102260001A400280704731B1B0F8442042F4004275
:10227000A0F8442005E0B0F84420C2F30E02A0F814
:10228000442070471AB183890B43838102E083891C
:102290008B438381704730B5024600200023002421
:1022A000158A05EA0103958905EA010413B10CB109
:1022B000012000E0002030BD1AB183890B438381E7
:1022C00002E083898B4383817047000070B500244E
:1022D00000220023058C4FF6FE7635400584028CE3
:1022E0008388048B4FF68F752C40B51E2C400D88CB
:1022F0002C43751E2A408D892A434D882A43104D50
:10230000A84202D00F4DA84213D14FF6F7752A40CC
:10231000CD892A434FF6FB752A408D882A434FF614
:10232000FF652B404FF6FF552B400D8A2B434D8AFE
:102330002B43838004838D684563028470BD000055
:1023400000000140000401400A460021018B4FF6C5
:10235000F7731940114301837047000070B50024E2
:1023600000220023058C4FF6EF7635400584028C61
:102370008388048B48F6FF752C404FF6FF452C40B0
:102380000D884FF6FF7606EA05252C434FF6DF75DC
:102390002A408D8906EA05152A434D8806EA051567
:1023A0002A43154DA84202D0144DA8421DD14FF624
:1023B0007F752A40CD894FF6FF7606EA05152A4338
:1023C0004FF6BF752A408D8806EA05152A434FF659
:1023D000FF352B404FF2FF752B400D8A06EA85052D
:1023E0002B434D8A06EA85052B43838004838D6841
:1023F0008563028470BD00000000014000040140BC
:102400000A460021018B4FF2FF7319404FF6FF730C
:1024100003EA0223194301837047000070B50024CA
:1024200000220023058C4FF6FF6635400584028CA0
:102430008388848B4FF68F752C404FF6FC752C40AB
:102440000D882C434FF6FF552A408D894FF6FF76B5
:1024500006EA05252A434D8806EA05252A43154D37
:10246000A84202D0144DA8421DD14FF2FF752A4058
:10247000CD894FF6FF7606EA05252A434FF6FF354C
:102480002A408D8806EA05252A434EF6FF752B4023
:102490004DF6FF752B400D8A06EA05152B434D8A34
:1024A00006EA05152B43838084838D68C563028407
:1024B00070BD000000000140000401400A460021F8
:1024C000818B4FF6F77319401143818370470000E9
:1024D00070B5002200230024058C4EF6FF763540AF
:1024E0000584038C8488828B48F6FF752A404FF65A
:1024F000FF452A400D884FF6FF7606EA05252A4358
:102500004DF6FF752B408D8906EA05352B434D8826
:1025100006EA05352B430A4DA84202D0094DA842D0
:1025200008D14BF6FF752C400D8A4FF6FF7606EA70
:1025300085152C43848082838D680564038470BD77
:1025400000000140000401400A460021818B4FF247
:10255000FF7319404FF6FF7303EA02231943818387
:1025600070474163704781637047C163704701647E
:102570007047000000220288184B98420ED0184B7A
:1025800098420BD0B0F1804F08D0164B984205D03E
:10259000154B984202D0154B984204D14FF68F73D9
:1025A0001A404B881A43124B984207D0114B98425D
:1025B00004D04FF6FF431A400B891A4302804B6840
:1025C000C3620B880385054B984202D0044B9842A6
:1025D00001D18B7A0386012383827047000001407A
:1025E000000401400004004000080040000C0040CE
:1025F000001000400014004010B504462068052873
:1026000001DCFFF7A7FB10BD70470000044800681D
:1026100020B103480068401E01490860704700006F
:102620002400002010B540F22441124800F0D0FBF5
:1026300060B1104800F086FC04460F480068C0F105
:102640000F000E490870FEF799F912E040F226617A
:10265000084800F0BDFB60B140F22661054800F07B
:1026600093FB05482C30006820F0010002492C3112
:10267000086010BD001001408C640240FB00002087
:1026800010B596B0044601211020FFF767FA01212A
:102690008805FFF743FA46208DF8540002208DF894
:1026A000550000208DF8560001208DF8570015A820
:1026B000FFF7F6F97148FEF7B9F94FF000600090A6
:1026C0006F4801906F480290402003900F200490C3
:1026D000002005904FF4806006900020079008903D
:1026E00009904FF400300A9000200B9001200C90CC
:1026F00000200D900E9069466048FEF7B5FA012261
:1027000010215E48FEF792FA012280215C48001FEA
:1027100000F055FB00215948FEF77CF9012188059E
:10272000FFF7FCF955483038FEF780F94FF00060AC
:1027300000905348019054480290002003900F20CD
:102740000490002005904FF48060069000200790D0
:1027500008904FF4807009904FF440300A90694619
:1027600046483038FEF780FA012144483038FEF7F9
:1027700051F9012240214248001F00F020FB0020B7
:10278000ADF84000ADF84200ADF84400ADF84800A7
:102790000C20ADF846000F940FA93948001F00F037
:1027A00067FB25208DF8540000208DF8550002208D
:1027B0008DF8560001208DF8570015A8FFF770F925
:1027C000012280212E48001F00F0F9FA0122402149
:1027D0002B48001F00F0F3FA002240F2266128483F
:1027E000001F00F01FFB002240F225512448001F6B
:1027F00000F018FB002240F227712148001F00F072
:1028000011FB012240F224411D48001F00F00AFB89
:1028100001211B48001F00F0C6FA01210846FFF7FE
:102820007DF907220A211948FEF7A0FA072209219B
:102830001648FEF79BFA02208DF8500000208DF814
:10284000520001208DF8530003208DF851004FF401
:102850000070139013A90D48FEF740FA02208DF87E
:10286000500000208DF853004FF48060139013A99E
:102870000648FEF733FA16B010BD0000B8640240F7
:102880000410014007080020F80700200000024063
:1028900010B540F22441174800F09AFAA8B1154843
:1028A00000F050FB044614480068C0F117001349BB
:1028B00008701349134801F0C2FA40F224410D4850
:1028C00000F062FAFEF70CF813E040F226610948C6
:1028D00000F07EFA68B140F22661064800F054FA32
:1028E00005481430006820F0010003498C39C1F814
:1028F000A00010BD004400408C600240F9000020A0
:10290000D80700206C07002010B596B004460121BE
:102910004804FFF713F901214805FFF7FFF81120DC
:102920008DF8540002208DF8550000208DF85600D7
:1029300001208DF8570015A8FFF7B2F87048FEF790
:1029400075F84FF0006000906E4801906E4802905C
:102950004020039017200490002005904FF48060E1
:10296000069000200790089009904FF400300A90DC
:1029700000200B9001200C9000200D900E906946D5
:102980005F48FEF771F9012210215D48FEF74EF90C
:10299000012280215B48001F00F011FA00215848F5
:1029A000FEF738F801214805FFF7B8F85448183801
:1029B000FEF73CF84FF000600090524801905348F9
:1029C00002900020039017200490002005904FF4FF
:1029D000806006900020079008904FF48070099066
:1029E0004FF440300A90694645481838FEF73CF9E4
:1029F000012143481838FEF70DF8012240214148D3
:102A0000001F00F0DCF90020ADF84000ADF84200F6
:102A1000ADF84400ADF848000C20ADF846000F9426
:102A20000FA93848001F00F023FA26208DF8540023
:102A300000208DF8550002208DF8560001208DF8F9
:102A4000570015A8FFF72CF8012280212D48001F00
:102A500000F0B5F9012240212A48001F00F0AFF92B
:102A6000002240F226612748001F00F0DBF9002217
:102A700040F225512348001F00F0D4F9002240F213
:102A800027712048001F00F0CDF9012240F22441B7
:102A90001C48001F00F0C6F901211A48001F00F071
:102AA00082F901210846FFF739F807220221184868
:102AB000FEF75CF9072203211548FEF757F90220BB
:102AC0008DF8500000208DF8520001208DF8530041
:102AD00003208DF851000420139013A90C48FEF731
:102AE000FDF802208DF8500000208DF853000820DA
:102AF000139013A90648FEF7F1F816B010BD0000B8
:102B0000A060024004440040830700206C070020BE
:102B10000000024070B5002440F22441134800F048
:102B200057F988B1114800F00DFA05461048C06AFF
:102B3000C0F10F000F49087040F224410B4800F02B
:102B400023F9FDF7B7FE10E040F22661074800F0D8
:102B50003FF950B140F22661044800F015F90448ED
:102B6000806D20F001000249886570BD004800407A
:102B700000600240F800002010B596B00446012124
:102B80008804FEF7DBFF01214805FEF7C7FF0E2092
:102B90008DF8540002208DF8550000208DF8560065
:102BA00001208DF8570015A8FEF77AFF7148FDF750
:102BB0003DFF4FF0006000906F4801906F48029019
:102BC000402003900F200490002005904FF4806077
:102BD000069000200790089009904FF400300A906A
:102BE00000200B9001200C9000200D900E90694663
:102BF0006048FEF739F8012210215E48FEF716F80A
:102C0000012280215C48001F00F0D9F800215948BA
:102C1000FDF700FF01214805FEF780FF55483038D9
:102C2000FDF704FF4FF000600090534801905448B6
:102C30000290002003900F200490002005904FF494
:102C4000806006900020079008904FF480700990F3
:102C50004FF440300A90694646483038FEF704F891
:102C6000012144483038FDF7D5FE01224021424879
:102C7000001F00F0A4F80020ADF84000ADF84200BD
:102C8000ADF84400ADF848000C20ADF846000F94B4
:102C90000FA93948001F00F0EBF827208DF85400E9
:102CA00000208DF8550002208DF8560001208DF887
:102CB000570015A8FEF7F4FE012280212E48001FC0
:102CC00000F07DF8012240212B48001F00F077F82A
:102CD000002240F226612848001F00F0A3F80022DD
:102CE00040F225512448001F00F09CF8002240F2D9
:102CF00027712148001F00F095F8012240F224417D
:102D00001D48001F00F08EF801211B48001F00F035
:102D10004AF801210220FEF701FF07220A21194883
:102D2000FEF724F807220B211648FEF71FF80220B1
:102D30008DF8500000208DF8520001208DF85300CE
:102D400003208DF851004FF48060139013A90D48B3
:102D5000FDF7C4FF02208DF8500000208DF85300CD
:102D60004FF40060139013A90648FDF7B7FF16B0A3
:102D700010BD000058600240044800404707002092
:102D8000380700200004024010B50022002340F65E
:102D90006A14A14200D100BF0A1201249440A3B2D8
:102DA000DC43048010BD21B1828942F4005282814B
:102DB00004E082894DF6FF731A40828170471AB190
:102DC000838A0B43838202E0838A8B43838270472A
:102DD00070B50246002400230025002040F66A1644
:102DE000B14200D100BFC1F3421501F01F0301261B
:102DF00006FA03F3012D02D19689334006E0022D35
:102E000002D1168A334001E0968A33400C12012623
:102E100006FA04F41688344013B10CB1012000E026
:102E2000002070BDF0B503460024002600250020D8
:102E300040F66A17B94200D100BF1846C1F34214E8
:102E400001F01F06012707FA06F5012C01D10C300D
:102E500004E0022C01D1103000E014301AB10768F0
:102E60002F43076002E00768AF430760F0BD000032
:102E70002DE9FF4705460E460024A14600BFA046A7
:102E8000B08900B100BF2C8A24F44054F088044378
:102E90002C82AC8941F20C608443B08831890843AC
:102EA000718908430443AC81AC8A24F44074B0892E
:102EB0000443AC826846FEF761FE2048854202D09A
:102EC0001F48854202D1DDF80C9001E0DDF8089042
:102ED000A88900F4004040B109EBC90000EB0910DB
:102EE00031684900B0FBF1F707E009EBC90000EBDE
:102EF000091031688900B0FBF1F76420B7FBF0F0EE
:102F000004012009642101FB1078A88900F4004025
:102F100040B1322000EBC800B0FBF1F000F0070038
:102F2000044308E0322000EB08106421B0FBF1F00C
:102F300000F00F0004432C81BDE8FF870010014022
:102F40000014014001468888C0F30800704700BFA4
:102F5000FEE703B401984100009850EAC12018BF71
:102F600004204A0D18BF40F0010040F2FF72B2EB9E
:102F7000515F08BF40F00200012808BF052002B0E1
:102F8000704700000000000070B5C1482DED020B35
:102F90002DED0E8B82B0119D25F000449FEDBEDB20
:102FA0009FEDBFEB84423EDBA4F140511098A1F1AC
:102FB0007F6108430FD0BC48844202DC28D11098BE
:102FC00030B39DED100B02B0BDEC0E8B02B0BDE82E
:102FD000704000F069BC9DED100B53EC1D2B51ECC3
:102FE000100BFDF794F99DED100B41EC180B53EC11
:102FF0001E2B51EC100BFDF78AF953EC182BFDF743
:10300000DFF841EC100B02B0BDEC0E8B02B070BDCE
:10301000012000F08DFC02B0BDEC0E8B02B0BDE8CB
:10302000704000F055BCA1489FEDA18B844256DA58
:103030009DED100BB4F1795F0ADA51EC100BFFF73C
:1030400088FF042808BF00F053FC9DED100BDAE761
:1030500053EC102B51EC100BFDF759F941EC190B07
:1030600095480621B0EE490AF0EE690A784400F06E
:103070009FFB53EC192B51EC100BFDF748F941EC79
:103080001A0B8E48B0EE490AF0EE690A0421784422
:1030900000F08EFB53EC192B51EC100BFDF737F9B8
:1030A00053EC182BFDF78CF841EC100B51EC1A0B7C
:1030B00053EC102BFDF79DF9CDE900019DED000BC0
:1030C00053EC102B9DED100B51EC100BFDF71FF97D
:1030D0009DED101B53EC112BFDF772F8D2E09DED26
:1030E000100B51EC100B00F099FC53EC182BFDF772
:1030F0000BF99FED730BCDE9000153EC102B9DED07
:10310000000B51EC100BFDF702F941EC190B6E4866
:103110000621B0EE490AF0EE690A784400F048FB57
:1031200053EC192B51EC100BFDF7F1F841EC1B0B94
:103130006648B0EE490AF0EE690A0421784400F0CE
:1031400037FB53EC192B51EC100BFDF7E0F853EC67
:10315000182BFDF735F841EC1C0B51EC190B00F066
:10316000A1FF41EC180B5A489FED5BABA04222DC5B
:1031700053EC1C2B51EC1B0BFDF73BF9CDE9000187
:103180009DED000B51EC180B53EC102BFDF7BFF825
:1031900053EC182BFDF714F853EC1A2BFDF7B7F886
:1031A00053EC1D2BFDF7ADF853EC1E2BFDF7ACF8DF
:1031B00041EC100B5FE08DED008B002000909DED49
:1031C000000B51EC180B53EC102BFCF7F9FF9DEDA5
:1031D000000B41EC1E0B53EC102B51EC100BFDF7C8
:1031E00096F853EC192BFDF78FF853EC1E2BFDF7D7
:1031F00000F941EC190B53EC1C2B51EC1B0BFDF7A8
:10320000F8F841EC1B0B53EC1A2B51EC190BFDF7A2
:103210007EF853EC1D2BFDF777F841EC190B53ECBE
:103220001A2B51EC180BFDF772F853EC1B2BFDF722
:103230006EF853EC192BFDF764F89DED000B41EC93
:10324000180B53EC1A2B51EC100BFDF760F89FEDA7
:10325000249B53EC192BFDF757F841EC100B51EC64
:10326000180B53EC102BFDF74CF853EC192BFDF712
:103270004BF841EC100B002D3FF7C5AE51EC100B95
:1032800081F0004141EC100BBDE6000000000000A1
:103290000000F03F00000000075C143326A6913CBC
:1032A000182D4454FB21F93F0000F07F0000E03F5F
:1032B000000000000000F03FA8100000B610000061
:1032C000000000000000E03FFA0F000008100000BE
:1032D0003333EF3F0000000000000000000000401A
:1032E000182D4454FB21E93F70B59B482DED020B8E
:1032F0002DED068B079D25F00044A04218DC974871
:10330000844202DC0AD1069840B19DED060BBDEC6B
:10331000068B02B0BDE8704000F0C6BA002DCCBFED
:103320009FED8F0B9FED900BBDEC068B02B070BD37
:103330008F48A04215DD8F48A042D8BF4FF0FF3420
:1033400058DD9DED060B51EC100BFFF702FE042833
:1033500008BF00F0CDFA9DED060BBDEC068B02B068
:1033600070BD9DED060B51EC100B00F057FBCDE945
:10337000060181489FED828BA0423CDD8248A0423D
:103380001FDD00249FED82AB9DED060B53EC1A2B45
:1033900051EC100BFCF714FF9DED060B41EC190BE3
:1033A00053EC1A2B51EC100BFCF7B1FF53EC182B1C
:1033B000FCF7A7FF53EC192BFDF71BF8CDE906012D
:1033C00049E09DED060B012453EC182B51EC100B3A
:1033D000FCF7F6FE9DED060B41EC190B53EC182B98
:1033E00051EC100BFCF78DFF53EC192BFDF701F896
:1033F000CDE906012FE06848A0421FDD02249FEDC1
:10340000689B9DED060B53EC192B51EC100BFCF750
:103410007EFF53EC182BFCF7D3FE9DED060B41EC21
:10342000180B53EC192B51EC100BFCF76AFF53EC03
:10343000182BFCF7DEFFCDE906010CE09DED060B35
:10344000032453EC102B9FED580B51EC100BFCF7A1
:10345000D0FFCDE906019DED060B53EC102B51EC8E
:10346000100BFCF754FF41EC180B53EC182BFCF736
:103470004EFF41EC190B4E480621B0EE490AF0EE22
:10348000690A784400F094F953EC182B51EC100BB6
:10349000FCF73DFF41EC180B4648B0EE490AF0EE50
:1034A000690A0521784400F083F953EC192B51EC9B
:1034B000100BFCF72CFF41EC100B51EC180B53ECEC
:1034C000102B002C0EDAFCF77BFE9DED061B53EC57
:1034D000112BFCF71CFF9DED061B53EC112BFCF789
:1034E00013FF35E0FCF76CFE9DED061B53EC112B32
:1034F000FCF70DFF41EC100B2F48784400EBC400A3
:1035000090ED001B51EC100B53EC112BFCF7F9FE66
:103510009DED061B53EC112BFCF7F3FE41EC100B59
:103520002648784400EBC40090ED001B51EC100BD2
:1035300053EC112BFCF7E8FE41EC100B002DA2BF61
:10354000BDEC068B02B070BD51EC100B81F0004158
:1035500041EC100B01E70000000010440000F07F78
:10356000182D4454FB21F93F182D4454FB21F9BF79
:103570000000DC3F0000203E0000F33F00000000A0
:10358000000000000000F03F0000E63F00000000E7
:103590000000000000000040008003400000000028
:1035A000000000000000F83F000000000000F0BF35
:1035B0004A0D0000000D00008A0C0000420C0000C3
:1035C00070B56B4E2DED040B2DED028B82B0DDF846
:1035D0001CC0DDE905235C422CF000411C4341EA9C
:1035E000D474049D22F00040B44205D86C422C43B0
:1035F00040EAD474B4420BD99DED061B9DED040B3B
:1036000002B0BDEC028B04B0BDE8704000F056B9CA
:10361000ACF14054A4F17F641C430BD0022404EAB3
:10362000AC7444EAD27405439FED538B9FED542B49
:1036300007D015E09DED040B51EC100B00F095F94F
:1036400042E0002C11BF012C9DED040B02B0BDEC3B
:10365000028B04BF04B070BD022C38D0032C3BD0C9
:103660000B439FED491B9FED4A0B0AD0B14218D185
:10367000B04209D121F0804120F0804007910590AF
:103680000FE0002A15DA10E0434B7B44002C08BF02
:1036900093ED000B0DD0012C10D0022C17D0032C71
:1036A0001AD0B0421DD1002A03DAB0EE410AF0EE82
:1036B000610A02B0BDEC028B04B070BD93ED000B4B
:1036C00051EC100B81F0004141EC100BF1E7B0EE32
:1036D000480AF0EE680AECE7B0EE420AF0EE620A41
:1036E000E7E7401A00153C28C8BF8DED000B19DC38
:1036F000BCF1000FBEBF10F13C0F9FED290B8DED0B
:10370000000B0FDB9DED060B53EC102B9DED040B16
:1037100051EC100BFCF76DFE00F080F900F025F97C
:10372000CDE90001002C08BF9DED000BC1D0012C9C
:1037300010D0022C9FED1C0B53EC102B9DED000BB9
:1037400051EC100B0DD0FCF7DCFD53EC182BFCF703
:10375000D8FDB9E7019880F0004001909DED000B85
:10376000A7E7FCF7CEFD53EC182BFCF7CDFDABE73C
:103770000000F07F00000000182D4454FB21094098
:10378000182D4454FB2109C0182D4454FB21F9BFC6
:10379000182D4454FB21F93F720B0000000000007B
:1037A0000000000000000000075C143326A6A13CC6
:1037B00070B504462DED028B4D1E00EBC500B0EE3A
:1037C000408AF0EE608A90ED000B35F0060017D0CD
:1037D00053EC182B51EC100BFCF799FD41EC100B3E
:1037E0006D1E04EBC50090ED001B51EC100B53EC6B
:1037F000112BFCF7E5FC41EC100B35F00600E7D18E
:10380000022D36D0042D1CD0062D1CBFBDEC028B22
:1038100070BD53EC182B51EC100BFCF778FD94EDB8
:103820000A1B53EC112BFCF7CBFC53EC182BFCF7C9
:103830006EFD94ED081B53EC112BFCF7C1FC41EC21
:10384000100B53EC182B51EC100BFCF760FD94EDB2
:10385000061B53EC112BFCF7B3FC53EC182BFCF7B5
:1038600056FD94ED040B53EC102BFCF7A9FC41EC36
:10387000100B53EC182B51EC100BFCF748FD94ED9A
:10388000021B53EC112BFCF79BFC53EC182BFCF7A1
:103890003EFD94ED001B53EC112BFCF791FCBDECAD
:1038A000028B41EC100B70BD10B553EC102B51EC9A
:1038B000100BFCF785FC41EC100B10BD10B553EC60
:1038C000112B51EC100BFCF77BFC41EC100B10BDE5
:1038D0009FED050B10B553EC102B51EC100BFCF7C2
:1038E00088FD41EC100B10BD00000000000000003E
:1038F0009FED050B10B553EC102B51EC100BFCF7A2
:1039000006FD41EC100B10BD00000000000000108F
:1039100002E008C8121F08C1002AFAD17047704798
:10392000002001E001C1121F002AFBD170470000F6
:103930000149086070470000FC00002070B5024695
:103940000E46304662F35F0083B200211D4600241C
:1039500003E069402D11601CC4B2032CF9DB01F0B7
:103960000F0141EA031080B270BD10B541EC100B9D
:10397000FFF7BAFC51EC100B10BD000010B51E484B
:103980000088401C1C49088008464088401C48802C
:103990000846C088401CC88008460088022812DB00
:1039A00000200880FDF706FA144800F0CFFA00F076
:1039B00057F9124800F0CAFA012804D110480068EB
:1039C000401C0F4908600C484088042806DB0A4860
:1039D0004088001F08494880FEF716FE0648C08848
:1039E000142807DB0448C08814380349C8800448F9
:1039F000FEF702FE10BD000044010020BC070020BD
:103A00007000002001B504490098086000BF02481A
:103A100000680028FBD108BD2400002082B0CDE959
:103A2000000121F0004001909DED000B02B051EC2F
:103A3000100B7047F0EE400AF6EE001A60EEA11A85
:103A4000B0EE611AB0EE600A10EE100A0749A1EB61
:103A5000600000EE100A21EE002AF7EE081A42EE8E
:103A6000401A61EE801AB0EE610A7047DF59375F85
:103A7000FEF724FAFCF700FFFDF79CFEA72140F2B9
:103A8000CF70FEF783FA532144F61F60FEF712FB56
:103A9000FDF700FF0E48FEF737FF4FF4E130FFF768
:103AA0006BF84FF4E130FEF7EBFD53214FF47A70E1
:103AB000FEF78EFB0AE0074800F048FA0548C168A7
:103AC000054800F03BF9044800F008F8F3E700006F
:103AD000A0860100BC070020240100202DE9F04150
:103AE000054600241226002700BF05E035F8140023
:103AF000154921F81400641C102CF7DB0020124932
:103B00000884488431461148FDF7DAF801210F484E
:103B1000FCF780FF01210E48FEF799FB00BF0D491D
:103B20000A48FDF72FF80028F9D000210848FEF7D1
:103B30008EFB00210548FCF76DFF06490348FCF7A2
:103B40004FFFBDE8F08100000001002070640240DA
:103B50000000014020000020F0EE400AC0ED010A04
:103B600090ED031AD0ED011A90ED0E2A01EE821AA3
:103B700080ED031A90ED031AD0ED0B1AB4EEE11AA2
:103B8000F1EE10FA04DD90ED0B1A80ED031A10E04F
:103B900090ED031AD0ED0B1AF1EE611AB4EEE11AB2
:103BA000F1EE10FA05D290ED0B1AB1EE411A80ED4C
:103BB000031A90ED011AD0ED021A31EE611AD0ED20
:103BC0000E1A81EE212A80ED042A90ED051AD0ED1F
:103BD000011A21EE211A80ED081A90ED061AD0ED97
:103BE000031A21EE211A80ED091A90ED071AD0ED83
:103BF000041A21EE211A80ED0A1A90ED081AD0ED70
:103C0000091A31EE211AD0ED0A1A31EE210A90ED8F
:103C10000C1AB5EEC01AF1EE10FA1AD090ED0C1A8B
:103C2000B4EEC01AF1EE10FA04D290ED0C1AB0EE18
:103C3000410A0EE090ED0C1AB1EE411AB4EEC01A32
:103C4000F1EE10FA05DD90ED0C1AB1EE411AB0EE6E
:103C5000410A90ED011A80ED021A80ED0F0A7047BB
:103C600010B52DED0A8B2C4890ED000A2B48D0EDB5
:103C7000000A30EE600A284880ED010A90ED000A43
:103C80002648D0ED000A30EE600A254880ED010A92
:103C90002449B1F90400FCF71BFC41EC1C0B9FED1F
:103CA000220B53EC102BFCF732FB41EC1B0B9FED6E
:103CB000200B53EC102BFCF79CFB41EC190B1E481E
:103CC00090ED000A10EE101A0846FCF731FC41ECAA
:103CD0001A0B53EC192BFCF714FB41EC180BFCF7F7
:103CE0003AFC154948600C48D0ED010AB0EE600A74
:103CF000FFF732FF0A48D0ED010AB0EE600AFFF785
:103D00002BFF0D48D0ED010AB0EE600AFFF724FF4B
:103D1000BDEC0A8B10BD0000500100202C070020D4
:103D2000900100209E0000200000000000408F4015
:103D3000000000000000E040D001002030B5054642
:103D40000C46B4F5006F02DB40F2FF7000E0204645
:103D50000446A0B20021FFF7F1FD044604F4004040
:103D600008B11E2000E00F20288004F4804008B134
:103D70001E2000E00F20688004F4005008B11E20CF
:103D800000E00F20A88004F4805008B11E2000E05D
:103D90000F20E88004F4006008B11E2000E00F202E
:103DA000288104F4806008B11E2000E00F206881A3
:103DB00004F4007008B11E2000E00F20A88104F474
:103DC000807008B11E2000E00F20E88104F0800020
:103DD00008B11E2000E00F20288204F0400008B146
:103DE0001E2000E00F20688204F0200008B11E2091
:103DF00000E00F20A88204F0100008B11E2000E0AF
:103E00000F20E88204F0080008B11E2000E00F2017
:103E1000288304F0040008B11E2000E00F2068830E
:103E200004F0020008B11E2000E00F20A88304F077
:103E3000010008B11E2000E00F20E88330BD427869
:103E4000837842EA0322C2F30A020A808278D210FF
:103E5000C37842EA4312C2F30A024A80C27892113E
:103E6000037942EA8302437942EA8322C2F30A02D7
:103E70008A8042795210837942EAC312C2F30A025D
:103E8000CA8082791211C37942EA0312C2F30A028C
:103E90000A81C279D211037A42EA4302437A42EAA2
:103EA0004322C2F30A024A81427A9210837A42EA9A
:103EB0008312C2F30A028A81827A5211C37A42EAD9
:103EC000C302CA81027B437B42EA0322C2F30A0295
:103ED0000A82427BD210837B42EA4312C2F30A0277
:103EE0004A82827B9211C37B42EA8302037C42EACC
:103EF0008322C2F30A028A82027C5210437C42EA85
:103F0000C312C2F30A02CA82427C1211837C42EAC3
:103F10000312C2F30A020A83827CD211C37C42EAF2
:103F20004302037D42EA4322C2F30A024A83027D2E
:103F30009210437D42EA8312C2F30A028A83427DD1
:103F40005211837D42EAC302CA83704710B52DED3A
:103F5000068B04464648008800EE100AB8EE400A78
:103F600010EE101A0846FCF7E3FA41EC1A0B9FED2D
:103F7000410B53EC102BFCF7CAF941EC190B9FEDE8
:103F80003F0B53EC102BFCF71BF941EC180BFCF723
:103F9000B0FA60603648408800EE100AB8EE400A79
:103FA00010EE101A0846FCF7C3FA41EC1A0B9FED0D
:103FB000350B53EC102BFCF7AAF941EC190B9FEDD4
:103FC000330B53EC102BFCF7FBF841EC180BFCF710
:103FD00090FAA0602648808800EE100AB8EE400AE9
:103FE00010EE101A0846FCF7A3FA41EC1A0B9FEDED
:103FF000250B53EC102BFCF78AF941EC190B9FEDC4
:10400000250B53EC102BFCF7DBF841EC180BFCF7FD
:1040100070FAE0601648C08800EE100AB8EE400A58
:1040200010EE101A0846FCF783FA41EC1A0B9FEDCC
:104030001B0B53EC102BFCF76AF941EC190B9FEDAD
:10404000150B53EC102BFCF75CF941EC180BFCF74B
:1040500050FA20610648008900EE100AB8EE400AC6
:10406000BDEEC00A84ED050A0120BDEC068B10BD33
:10407000D80700202B8716D9CEF7C3BFF6285C8F50
:10408000C27D61403BDF4F8D976EC2BF9A9999996F
:1040900099E16140E17A14AE47F961403BDF4F8D11
:1040A000976EC23F00B52DED048B83B041EC190B28
:1040B000FCF744FB41EC180B18EE100A18EE901AAE
:1040C0008DED008B002818BF0120084320F0004030
:1040D000C0F17F6000F1E040C00F14D019EE101A5B
:1040E00019EE900A8DED009B002918BF01210843AD
:1040F00020F00040C0F17F6000F1E040C00F04BF3D
:104100000120FFF715FC51EC180B03B0BDEC048B3C
:1041100000BD000000000000555555555555C53FE0
:104120007D6FEB0312D6D4BF5544880E55C1C93FED
:104130003B8F68B52882A4BF88B20175E0EF493F84
:1041400009F7FD0DE13D023F4B2D8A1C273A03C0C4
:10415000C88A599CE52A004059018D1B6C06E6BFB0
:1041600082922EB1C5B8B33F4FBB610567ACDD3F4E
:10417000182D4454FB21E93F9BF681D20B73EF3F8E
:10418000182D4454FB21F93FE2652F227F2B7A3C06
:10419000075C143326A6813CBDCBF07A8807703CBF
:1041A000075C143326A6913CC4EB98999999C9BF32
:1041B000711623FEC671BCBF6D9A74AFF2B0B3BF67
:1041C0009AFDDE522DDEADBF2F6C6A2C44B4A2BF27
:1041D0000D5555555555D53FFF8300922449C23F93
:1041E0006E204CC5CD45B73F513DD0A0660DB13FC7
:1041F000EB0D76244B7BA93F11DA22E33AAD903FD9
:10420000000000000000000028420008000000201C
:1042100000010000103900082843000800010020B8
:10422000300B000020390008007A030A000000006B
:104230000000000001020304060708090000000056
:10424000010203040102030406070809000000003C
:104250000000A04100000000000000000000FA4340
:1042600000007A440000000000002042000000002E
:10427000000000000000FA4300007A440000000043
:104280000000A04100000000000000000000FA4310
:1042900000007A4400000000000000000000000060
:1042A000000000000000000000000000000000000E
:1042B00000000000000000000000000000000000FE
:1042C00000000000000000000000000000000000EE
:1042D00000000000000000000000000000000000DE
:1042E000000000000000803F00000000000000000F
:1042F00000000000000000000000000000000000BE
:104300004006000040060000400600004006000095
:10431000000000000000000000000000000000009D
:08432000000000000000000095
:040000050800018965
:00000001FF
